:03000000020A00F1
:0C0A0000787FE4F6D8FD75816C020A478F
:08000300252E32660A0D0A00E9
:100B5500120C93120D0D7B007A00794B120AF95095
:100B6500F5AC4BAD4CE41202B17B007AE079FF782D
:100B75004412020FE4FBFA798C7842120106E4FB79
:100B8500FA792078C11200158F508E4F8D4E8C4DFD
:100B95007BFF7A0079038F578E568D558C5412053D
:030BA500F380B327
:100BF500012700012500012400012300012A00012D
:100C05002900012800012600014A000149001E2B88
:100C1500300000000000000000000000000000009F
:100C25000000000000000000000000000000C109F5
:100C9300538EFD438E805389FB5389FC758CFE75FF
:100CA3008A80D2A9D28CD2AFC20DC20CC20AD20B97
:060CB300E4F52AF52922F8
:0D0D0000300B09C20B8F27D20D300BFD22E6
:100C6C00300A21C20AC3E549941E74809480500C4A
:100C7C00AF490549742B2FF8A6258003E4F5498567
:070C8C002522D209AF22224C
:050D1400AE07020D0016
:100CED001204D6FF600C120D00740129F9E43AFAD2
:030CFD0080EE2264
:03000B00020A8C5A
:100A8C00C0E0C0D0300C261529E529702B75290340
:100A9C001526E5267009852325C20CD20A8019E596
:100AAC0023C313F52330B010432380800B20B008F0
:100ABC00D20C752904752609152AE52A702A752A7F
:100ACC0003300D24E528700AC2B185272475280946
:100ADC008016E524C313F5241528E5287008D2B137
:0D0AEC00C20DD20B800292B1D0D0D0E0320A
:070D0D00D2B330B3FDD32285
:100BA800E4F557F55820B3FD30B3FDE4F556C3E539
:100BB80056940974809480502F20B3FD7F0C120C3A
:100BC800B930B31DC374089556FF7E007401A80799
:100BD800088005C333CE33CED8F94258EE42578049
:0C0BE8000330B3FD055680C6AE57AF5871
:010BF40022DE
:040C3600AD07AC0654
:100C3A00E4FBFAEAC3940974809480501D7E007420
:100C4A0001A802088005C333CE33CED8F9FFEE5C83
:100C5A00FEEF5D4E60010B0A80D9EB30E002C32241
:010C6A00D3B6
:010C6B002266
:060AF9008B518A52895363
:100AFF00E4F554F555F582F583120BA88E548F55F6
:100B0F00120BA88E838F82AF55AE54120C36400154
:100B1F0022AF82AE83120C36400122E554C313F587
:100B2F0054E55513F555E583C313F583E58213F5A6
:100B3F0082E5554583FFE582AB51AA52A953CF8F6A
:050B4F00F012052ED399
:010B5400227E
:100CD6007D157C03ED1D70011C144C70F7EF1F7021
:060CE600011E144E70EA2D
:010CEC0022E5
:100CB900AD071FD3ED940074809480400F7E01EE40
:0C0CC900D394007480948040E71E80F3F8
:010CD50022FC
:10000E0002031FE86480F8E933E83360110460F0FE
:10001E00ED33EC337009E8FCE9FDEAFEEBFF220458
:10002E0060DED3EB9FEA9EE99DE8C2E78CF0C2F753
:10003E0095F0400CE8CCF8E9CDF9EACEFAEBCFFB1F
:10004E001202EA85D0F05804700320D5B3E804708C
:10005E00075002B2D502032992D5EC0460F7E4CC26
:10006E00C0E0C398F8603B94186008400DD0E0FBE8
:10007E00020301E4FBFAC9FC8028E830E406E4C977
:10008E00FBE4CAFCE830E305E4C9CACBFCE854073C
:10009E006010F8C3E913F9EA13FAEB13FBEC13FC47
:1000AE00D8F130F52FC3E49CFCEF9BFFEE9AFEEDEA
:1000BE0099FDD0E0FBEF4E4D4C701222DB03020394
:1000CE0026EC2CFCEF33FFEE33FEED33FDED30E787
:1000DE00EB020301EF2BFFEE3AFEED39FDD0E0FB14
:1000EE0050130BBB0003020329ED13FDEE13FEEFBD
:0800FE0013FFEC13FC020301E7
:10010600EC4D6011E8497017ED33EC3304600DE4F3
:10011600FCFFFEFD22E933E8330470F802031F12E8
:1001260002EA58046009E4CC2481500628500902EA
:100136000329284003020326C0E0EB4A7044B98035
:1001460006D0E0FB020315EF4E701CBD8008EBFFE6
:10015600EAFEE9FD80EBE98DF0A4FEE5F00201EF91
:10016600E9CDF9EAFEEBFFEF89F0A4FCE5F0CE89D4
:10017600F0A42EFFE435F0CD89F0A42DFEE435F091
:100186008067EF4E7005BD80D780C3EF8BF0A4ACBF
:10019600F0EE8BF0A42CFCE435F0F8EF8AF0A42CFA
:1001A600E5F038FCE433CB8DF0A42CFCE5F03BF80D
:1001B600EE8AF0A42CFCE5F038F8E433CF89F0A4FD
:1001C6002CFCE5F038CF3400CE89F0A42FFFE5F003
:1001D6003EFEE433C98DF0A42EFEE5F039CD8AF05B
:1001E600A42FFFE5F03EFEE43DFD33D0E0FB5007D3
:1001F6000BBB000F020329EC2CFCEF33FFEE33FEA2
:06020600ED33FD020301CF
:10020C00020329EC5D046005E85904700302031F26
:10021C001202EA580460F6EC4860F2EC7004FDFE41
:10022C00FF22C860DB2481C85009C39860025006C5
:10023C000203269850CAF582E9294B4A7005AB8215
:10024C0002031575F0007C1A7880C3EF9BEE9AEDD3
:10025C0099400DC3EF9BFFEE9AFEED99FDE842F03D
:10026C00DC23ACF0D0E0FFD0E0FED0E0FDAB822090
:10027C00E7101BEB60BAEC2CFCEF33FFEE33FEED1A
:10028C0033FD020301E803F830E705C0F075F00018
:10029C00EF2FFFEE33FEED33FD40B830E7C280AAFE
:1002AC0075F020800E75F010800575F0087D007ECD
:1002BC00007F003392D530D50312054DEC3340103E
:1002CC00EF33FFEE33FEED33FDEC33FCD5F0ED22D6
:0E02DC00E5F0247EA2D513CC92E7CDCEFF2212
:10059100E5682454F8E6056822785130070278545A
:1005A100E475F00112055B0204D62000EB7F2ED228
:1005B100008018EF540F2490D43440D4FF30040B42
:1005C100EF24BFB41A0050032461FFE569600215EE
:1005D10069056CE56C7002056B30070D7851E475A7
:1005E100F00112055BEF02051C020D147403D20722
:1005F1008003E4C207F5688B518A528953E4F56997
:10060100F56BF56CE56960077F201205CC80F57507
:100611006AFFC201C200C202C203C205C206C20809
:1006210012059AFF700D3007057F001205DDAF6CD2
:10063100AE6B22B4255FC2D5C20412059AFF24D045
:10064100B40A00501A75F00A786930D50508B6FF6A
:100651000106C6A426F620D5047002D20380D9244F
:10066100CFB41A00EF5004C2E5D2040208CAD20185
:1006710080C6D20080C0D20280BCD2D580BAD20559
:1006810080B47F201205CC2002077401B5690040B7
:10069100F1120591FF1205CC020605D208D206809F
:1006A10095120591FB120591FA120591F94A4B70C9
:1006B1000679C17A097BFF20022EE569602A7E0056
:1006C1008E827583001204EF60060EEE656A70F08B
:1006D100C2D5EBC0E0EAC0E0E9C0E0EE12092AD0E1
:1006E100E0F9D0E0FAD0E0FB1204D6FF60AAEBC03B
:1006F100E0EAC0E0E9C0E01205CCD0E02401F9D085
:10070100E03400FAD0E0FBE56A0460DCD56AD98008
:1007110087D20280A212090D60F7E56A7001041206
:100721000334A96A600DE56A600914F56A1209B417
:10073100EF60F3EA30E702F404C3995077EAF42555
:100741006A0430E701E404F56A800D12090D60C105
:10075100EA056A256A120334EA7867F630E701E4AC
:10076100256A04D56A042005011412092AE4C0E0AF
:100771001209B47867E6601320E70714F61205B48E
:10078100802204F6D0E014C0E07F001205B4E56ACF
:1007910060071205AB156A800B3005031205ABD05B
:1007A100E0020605D0E00480C512090D60A0E56AEB
:1007B100041203347867EAF6E56A20050260010451
:0507C100240412092AC6
:1007C60074FF04C0E01209B41205B4E56A200502FC
:1007D60060031205ABD0E0B56AE87F451205BE7826
:1007E60067E67F2B30E7047F2DF404C0E01205CCCA
:1007F600D0E075F00A84C0F01205B5D0E01205B558
:10080600020605791080027908C206C2088008D25D
:10081600D5790A8004790AC2D5E56A047002F56AB8
:10082600E4FAFDFEFF120591FC7B08200113120578
:1008360091FD7B1030000A120591FE120591FF7B97
:1008460020EC3382D592D55013C3E43000069FFFC7
:10085600E49EFEE42001039DFDE49CFCE4CBF8C28B
:1008660001EC700CCFCECDCCE824F8F870F38017ED
:10087600C3EF33FFEE33FEED33FDEC33FCEB33FB1E
:10088600994002FB0FD8E9EB300105F8D0E0C448E7
:10089600B201C0E00AEC4D4E4F78207B0070C2EAF0
:1008A600B56A0040BCC0E012092CD0F0D0E02001AF
:1008B60004C4C0E0C4B201C0F01205B5D0F0D5F052
:1008C600EB02060512056B06A25308095806734C7F
:1008D600066F42080D4F0815440815490688430857
:1008E6001B55074C4607AA4507164709E1500677E8
:1008F6002D067B2E069E2B067F23069C2009CA2AE0
:1009060006374800000696E56AB4FF03756A0612C4
:100916000591FC120591FD120591FE120591FF78D5
:1009260060020363790AA2D5200314300509B910C1
:10093600020404B9080104A2D520060250010420CD
:1009460002689202B569005034C0E07F2030031976
:100956007F30A20272067205500F120983C202C2CC
:1009660006C205C2087F30800F300503E9C0E012D9
:1009760005CC300503D0E0F9D0E0B569CC300517D9
:100986007F30B9100C1205CC7F583004077F788071
:1009960003B908031205CC3002057F2D0205CC7F72
:1009A600202008F87F2B2006F322920280CF7F00BA
:1009B600B4070050052460F8E6FF22286E756C6CBB
:1009C6002900D2011205913001F8C201786930D5AB
:1009D6000108F60206372D504349581205912403A3
:1009E600B405004001E49009DC931205BD743A1287
:0A09F60005BDD2037569040208096B
:1002EA00E9D2E7C933E833F892D5EDD2E7CD33EC5A
:0702FA0033FC5002B2D522D3
:10030100EC30E7100FBF000C0EBE00080DBD00045D
:100311000BEB6014A2D5EB13FCED92E7FD2274FF09
:10032100FCFDFEFF22E480F8A2D574FF13FC7D8062
:03033100E480EF76
:10033400F920E72824F950037907E4F42402FB1890
:10034400DBFDE624FB5014E9600DE4F618E604F640
:0F035400B40A08E4F6D9F57401F60A22C2D522DC
:10036300ED33EC3392D5FA602AB4FF33EDC2E77B69
:10037300FF60067A037988E4227A03799120D50411
:100383007A03798C224E614E002B494E46002D494B
:100393004E4600E47A08F608DAFC7B00740722E88C
:1003A300C0E0ECC0E0EDC0E0EEC0E0EFC0E0EA7515
:1003B300F010A4CAABF075F04DA42BFBE435F0FCB0
:1003C300EA2410FAEB34C5FBEC34D9FCEDC2E7FFA9
:1003D30075F056A4F42411C5F0F434C58FF0A42AA3
:1003E300E5F03BE43CF620E714120496D0E0FFD09E
:1003F300E0FED0E0FDD0E0FC12020F8014F4041202
:100403000496D0E0FFD0E0FED0E0FDD0E0FC120186
:1004130006D0E0F8E6FAEDD2E7CD33EC332482FBE5
:10042300E4C3CF33CFCE33CECD33CD33DBF37B0732
:1004330075F00A846004F6081B0AE5F0F6088FF0ED
:10044300740AA4FFACF08EF0740AA42CFEACF05036
:10045300010C8DF0740AA42CFDE435F0F608DBDE04
:03046300740722F9
:100466003F8000004120000042C80000447A00009E
:10047600461C400047C35000497424004B18968020
:100486004CBEBC205A0E1BCA6753C21C749DC5AE17
:10049600FB60065407601C23231204C4EB54386027
:1004A600091204B01204BF120106ECF8EDF9EEFAD7
:1004B600EFCB22EB1204BF80F1543803241C9004C6
:1004C60066FE93FC0EEE93FD0EEE930ECE93FF2288
:100A0C00020B55E493A3F8E493A34003F68001F2A0
:100A1C0008DFF48029E493A3F85407240CC8C333EB
:100A2C00C4540F4420C8834004F456800146F6DFBA
:100A3C00E4800B0102040810204080900BF5E47E4A
:100A4C00019360BCA3FF543F30E509541FFEE493AF
:100A5C00A360010ECF54C025E060A840B8E493A376
:100A6C00FAE493A3F8E493A3C8C582C8CAC583CAA1
:100A7C00F0A3C8C582C8CAC583CADFE9DEE780BE59
:010C350000BE
:1004D600BB010689828A83E0225002E722BBFE0224
:0904E600E32289828A83E4932257
:1004EF00BB010CE58229F582E5833AF583E02250C2
:1004FF0006E92582F8E622BBFE06E92582F8E2220C
:0D050F00E58229F582E5833AF583E4932225
:10051C00BB010689828A83F0225002F722BBFE01BE
:02052C00F322B8
:10052E00BB010A89828A83F0E5F0A3F0225006F718
:0F053E0009A7F01922BBFE06F3E5F009F3192215
:0E054D00C3E49FFFE49EFEE49DFDE49CFC22BF
:10055B00FAE6FB0808E6F925F0F618E6CA3AF622A1
:10056B00D083D082F8E4937012740193700DA3A31F
:10057B0093F8740193F5828883E473740293686033
:06058B00EFA3A3A380DF33
:00000001FF
